:020000040000fa
:080000000002040000000000f2
:020000040000fa
:10000800e6020000e6020000e6020000e602000048
:10001800e6020000e6020000e6020000e602000038
:10002800e602000038a90000e6020000b2790000ec
:10003800e602000078a90000e60200003c79000012
:10004800fca90000e6020000e6020000e60200004b
:10005800e6020000e6020000e6020000e6020000f8
:10006800e6020000e6020000e6020000e6020000e8
:10007800e6020000e6020000e6020000e6020000d8
:10008800e6020000e6020000e6020000e6020000c8
:10009800e6020000e60200003ab10000f6b10000f6
:1000a800e602000054b70000e6020000e602000085
:1000b800e6020000baa90000e6020000e60200001d
:1000c800e6020000e6020000e6020000e602000088
:1000d800e6020000e6020000e6020000e602000078
:1000e800e6020000e6020000e6020000e602000068
:1000f800e602000036b70000e6020000e602000053
:10010800e6020000e6020000e6020000e602000047
:10011800e6020000e6020000e6020000e602000037
:10012800e6020000e6020000e6020000e602000027
:10013800e6020000e6020000e6020000e602000017
:10014800e6020000e6020000e6020000e602000007
:10015800e6020000e6020000e6020000e6020000f7
:10016800e6020000e6020000e6020000e6020000e7
:10017800e6020000e6020000e6020000e6020000d7
:10018800e6020000e6020000e6020000e6020000c7
:10019800e6020000e6020000e6020000e6020000b7
:1001a800e6020000e6020000e6020000e6020000a7
:1001b800e6020000e6020000e6020000e602000097
:1001c800e6020000e6020000e6020000e602000087
:1001d800e6020000e6020000e6020000e602000077
:1001e800e6020000e6020000e6020000e602000067
:0801f800e6020000e60200002f
:020000040000fa
:10020800e6020000e6020000e6020000e602000046
:10021800e6020000e6020000e6020000e602000036
:10022800e602000038a90000e6020000b2790000ea
:10023800e602000078a90000e60200003c79000010
:10024800fca90000e6020000e6020000e602000049
:10025800e6020000e6020000e6020000e6020000f6
:10026800e6020000e6020000e6020000e6020000e6
:10027800e6020000e6020000e6020000e6020000d6
:10028800e6020000e6020000e6020000e6020000c6
:10029800e6020000e60200003ab10000f6b10000f4
:1002a800e602000054b70000e6020000e602000083
:1002b800e6020000baa90000e6020000e60200001b
:1002c800e6020000e6020000e6020000e602000086
:1002d800e6020000e6020000e6020000e602000076
:1002e800e6020000e6020000e6020000e602000066
:1002f800e602000036b70000e6020000e602000051
:10030800e6020000e6020000e6020000e602000045
:10031800e6020000e6020000e6020000e602000035
:10032800e6020000e6020000e6020000e602000025
:10033800e6020000e6020000e6020000e602000015
:10034800e6020000e6020000e6020000e602000005
:10035800e6020000e6020000e6020000e6020000f5
:10036800e6020000e6020000e6020000e6020000e5
:10037800e6020000e6020000e6020000e6020000d5
:10038800e6020000e6020000e6020000e6020000c5
:10039800e6020000e6020000e6020000e6020000b5
:1003a800e6020000e6020000e6020000e6020000a5
:1003b800e6020000e6020000e6020000e602000095
:1003c800e6020000e6020000e6020000e602000085
:1003d800e6020000e6020000e6020000e602000075
:1003e800e6020000e6020000e6020000e602000065
:0803f800e6020000e60200002d
:020000040000fa
:100400006f9221000eff27000e01880000000000ff
:10041000000020000000e000020032000001200087
:10042000200288000c00070080e92b00010020005a
:1004300011000700000020000000e0000200320070
:100440000000020000000000046202000000000042
:100450000040da000000fe004440a900400b2000ec
:100460000000e0000300320000002000a00188002e
:100470004440a80000000600910188008000780038
:100480000000eb0015003700e280400032a0b4000d
:100490009101ba00e280400032a0b4009102ba009b
:1004a000e280400032a0b4000002eb00472bde00e7
:1004b000f507b200602ce10004003a000059eb009f
:1004c0008301e900fdff3e00040037006128e100e0
:1004d000010032000082eb00040007001101ba00a5
:1004e0000200e000e8ff3a00000006003159ba00bf
:1004f0008301e9000c0032002159ba008301e900b0
:10050000080032000400e00003003a00e2804000ee
:1005100032a0b400f5ff370011d9ba008301e90019
:10052000faff3a008100e800e180400032a0b40008
:100530000000060098c4040000000000acc40400e1
:100540000000000048c5040000000000f6c40400dc
:10055000000000008ec40400000000006cbe040017
:100560000000000088be04000000000090be0400ef
:100570000000000062be040000000000949104002e
:10058000000000007091040000000000ec980400de
:1005900000000000a2910400000000002c93040061
:1005a00000000000c497040000000000269804002a
:1005b00000000000320c04000000000000000400f5
:1005c00000000000cc100400000000000040da0031
:1005d0000000fe000a00fa008001eb00b3bf9f009c
:1005e000c0bf9f00d1bf9f00e2bf9f000080eb0013
:1005f000f0bf9f006a805700b00a07007fb89700dd
:10060000e10f400002003a0051022000914d8800a5
:100610000080fa00000006000a00fa001100200025
:10062000b1bf9f00c0bf9f006a805700a50a0700a6
:100630004fb897000080fa00000006000a00fa0098
:10064000e20f500020003e0010b98000e10f500082
:1006500006003200802320004523200023232000b1
:10066000042320000000e00004003a008022200063
:10067000452220002322200004222000060028001a
:100680001403630003003a00060878000000280005
:10069000140a700013a8a30001003a0013a0a000e0
:1006a00002007800050037001388a300feff320027
:1006b0003102fb00840a78000000e9000000e0003d
:1006c000f9ff3a000800370033002000b3bf9f0055
:1006d000c0bf9f00d1bf9f00e2bf9f006a8057004c
:1006e0007a0a07006fb99700020078000080fa00cc
:1006f000000006000a00fa0051002000b1bf9f0070
:10070000c0bf9f006a805700720a07005fb8970059
:100710000080fa0000000600889fbe008004780078
:1007200020b980000000e00004003a000e0007003d
:100730000084eb000000e0000800350028b98000cc
:100740000900e0000500320009004400060007002f
:100750000000e00001003d000084eb00080078008c
:100760004f04be0000000600800078000100e00099
:1007700003003a006072210020b9880000000500e3
:100780000080eb0062922100828f500002003e0048
:1007900021b988000000eb000000060003f0a20071
:1007a000889fbe008a9fbe008c1f7800ab010700a7
:1007b000b20133006450e1004f0032006420e100d8
:1007c0005200320003826c0007003b000905d00094
:1007d0000306d000820f54000c065d0002003900b1
:1007e00002003200890178000306780085825500f6
:1007f00004003d000003fd008103fd008502ea00c6
:100800008b854200840f720002003b0060001000e4
:10081000e08018006011b8000005eb007a28e100c4
:100820000a00390006007800c75ddd00f707b20056
:10083000878075002d003700828171000a017800e1
:10084000610560008180d1000080d3008502e9004d
:10085000f9ff3b00060440008784480002003b008b
:1008600060041400e0841c000988a3000700320023
:100870008a81710082817100610164008904d10064
:100880000884d3008b05e800170037000978a3001f
:1008900013003a000b00e000130034008b05e90060
:1008a0000804440089844c000a4474000978a300b9
:1008b0000d003a000b00e000070034008b05e90052
:1008c0000804440089844c0001003a000b00200019
:1008d0000978a300f7ff32000001eb0002003700a7
:1008e000828171000a017800210107000cf0a70045
:1008f00001f0a0006a0137006420e10002003a0024
:10090000838f6c006a0133000801be000200be0044
:10091000630137000001eb004c023700889fbe00e6
:100920008a9fbe008c1f78004c0107001002200037
:1009300002003b00904d8800500137008a006200a1
:100940006408e10002003a00904d88005801370029
:100950006108e100fcff32000800be0003047800db
:100960007200070001f0a1000900070008f0a600ce
:10097000040037000001be0091042400b0fd2000f7
:1009800086ff070009f0a70001f0a200440137002c
:10099000889fbe008a9fbe008c9fbe000004be00e0
:1009a000190107000800be00890678006420e100f4
:1009b00008003900040032000160a000120220008b
:1009c000924d88005300370091fc2300b0fd2000b9
:1009d0004e0037000006eb0009f0a10003f82300e9
:1009e000020020000800be0092000700060034004c
:1009f00001f82300000020000801be004b000700a2
:100a00000004be002c0020000800be0093e8230074
:100a1000320a230087000700120034000801be00dc
:100a2000d1fd2300703d2b005dff07000005be00d7
:100a3000b3f32300f27a26000800be001f0107006e
:100a400003f823000200200054ff07000801be0045
:100a500053ff07000a01be00340007000004be0077
:100a60000c06e8000800be0001f0a1000200200012
:100a7000039823006f0007000800be001600350031
:100a80000801be000d0107000005be0032cd2c009c
:100a900043fb230042ff0700809fbe00126928002d
:100aa00003d52b000a00be0004010700620f2100dd
:100ab00013ef2b003aff07000a01be00ff000700fa
:100ac0004f01be00190007000801be00fb0007002f
:100ad0000801be0032ff07000c00e0000b003200ee
:100ae0000c10a70001f0a200b2fd200093fc23002f
:100af0006260e1000400320022a9200063f02300bc
:100b00000c10a70063f8230025ff07000df0a700d5
:100b100001f0a2004f06be004f05be004f04be000c
:100b2000000006000081eb0018013700889fbe001e
:100b30008a9fbe008c1f7800c8000700cf003300da
:100b400003866c006450e1002e0032006420e10056
:100b5000330032006150e1002f0032006120e100db
:100b60003100320085855500eb07b00009002000f8
:100b700008042000050037000804440089844c0064
:100b80000a0031000603430087834b000001530035
:100b900081815b00f8ff33000203be000800a00063
:100ba0000804440089844c00f6ff3900c639dd0092
:100bb0008301730001003200130020008904d1007a
:100bc0000884d3000998a300050032000800a7009c
:100bd0000300a0008904d1000884d3008b05e8003d
:100be0008904d1000884d3000001eb000281d20007
:100bf0005f00070001f0a1000cf0a70001f0a000c9
:100c0000a70037006420e100a90032000801be00ff
:100c10000200be00f7ff37006120e100a4003200af
:100c20006000b800f3ff37000000200001f8270043
:100c3000f0ff37001400200012023700f4ff2f00ed
:100c4000100237000001be006f0007000470a7000b
:100c500003f0a1006509b100160032000d00350057
:100c60006828e10006003500f0ff2f00f1ff2700a3
:100c70000300e00013003b00010028000000050015
:100c800000004000818048008502e900fcff3a0036
:100c900008003700f88f420002003c008000eb00a3
:100ca000000005008100d1000080d3008502e8002b
:100cb000fcff3a000300e00002003b00600010006f
:100cc000e0801800000006000001be004e00070092
:100cd0000470a70003f0a10003f8a30013003a007a
:100ce0006509b10010003200090035006928e100f3
:100cf000020035000100280000000500000040004f
:100d0000818048008502e900fcff3a0000000600ef
:100d1000f88f4200050035008100d1000080d3002b
:100d20008502e800fcff3a00000006008000eb00ae
:100d3000000005004f89de0082017800ec013700d9
:100d40006011b800fa0137000001eb00a6010700ae
:100d5000040032000200200003f8230001f0a70085
:100d60008efe07000000060004002000c5013700c9
:100d700081002000618055000b003d000b00200029
:100d800061fe2f000100e1001d003400828171002e
:100d9000610164008904d1000884d3000000e800e8
:100da000faff3a0071002000610064000300700047
:100db000020060000900320061044400e0844c003d
:100dc0000988a500050032008b05e8006808e100ed
:100dd00002003a008904d1000884d300f20f2000f9
:100de0000258e10005003d00c75ddd00f907b200d3
:100df0008980750008007800000006000bf82700c5
:100e00008b00780000000500c70ade00f107b20081
:100e1000f50fb20008003200e1cf420002003200bc
:100e20000170a00024000500810f70000100320055
:100e30000408050044000500810f700002003a001c
:100e4000140005008502e9000000400081c0480050
:100e5000fcff3b000170a000240005000004be0060
:100e6000e9ff07000003be000405be000200be004b
:100e7000e5ff0700844f7500000006000200be0079
:100e80006450e100050036006420e10002003600f5
:100e90000968a30001003a000800be000160a0003c
:100ea0004f0678004f05be004f04be00000006004c
:100eb000f0ff2f00f1ff2700f9ff3700889fbe00e9
:100ec0008a9fbe008c1f7800e4ff0700ebff330011
:100ed00003866c006450e100240032006420e100cd
:100ee000270032006150e100220032006120e10061
:100ef000210032008b854200eb07b1000134b800bd
:100f0000003ab8000804420089844a00013ab80057
:100f10000030b8008880400009014a000400330016
:100f20000000400081804800020149008b05e90073
:100f3000c909dd00830170000100320013002000a8
:100f4000c814de004814dd004709de001200b200bc
:100f5000c808de000884700085ff070001f0a100ca
:100f60000cf0a70001f0a000cdff37006120e100e8
:100f7000cfff32000801be000200be00f7ff3700bd
:100f80006150e100fcff3a00c9ff3700889fbe00b6
:100f90008a9fbe008c9fbe00820578000004be00c0
:100fa00099ff07000800be006420e1000700390037
:100fb00002003a00f1ff2700f0ff2f000160a000bf
:100fc00012022000924d8800550037006120e10098
:100fd00003003a000b00a70001f82300500037007f
:100fe00001f0a100020021009364240011ff07001a
:100ff0000800be0004003500b2fd2000930c240060
:101000007a0107000004be000005eb000b00a600fb
:101010004f0dde0001f0a1000004be0032982f0049
:1010200023ea2300a5ff07000001eb0003f02300e3
:101030000b00a70003f82300d9fd070001ff0700fc
:101040000000a7000a00a2003aff07000b00e00022
:10105000030032000200200003f02300cffd070050
:1010600001f0a2000006be0002002000930424004c
:1010700092ff07000801be00c9fd0700809fbe0067
:101080000c00be0022a22a00d3a723008bff07007a
:101090004f01be00c2fd07000004be0001f0a10028
:1010a0000200200003982300e2fe07000800be00b3
:1010b000190035000001be0080ff07000006be00d9
:1010c000b2c52900e36223007cff070022222b0027
:1010d000f3942b00b2fd07000c01be0077ff070060
:1010e000e273280083c02300adfd07000c01be00a1
:1010f00072ff070042aa2a00a3e22b00a8fd070006
:101100000c01be006dff07000801be006bff070069
:101110000801be00a2fd07000a00a70001f0a2001e
:101120004f06be004f05be004f04be000000060083
:101130000001eb0095ff3700889fbe008a9fbe002c
:101140008c1f78000004be002fff07000478a30066
:1011500026003a006120e1002500320009f8a300d2
:1011600025003a006420e10021003200f507b100bb
:101170000508a30002003200000040008180480002
:101180006044b8000310200002002000000040006e
:10119000818048000805440089854c000a0541000b
:1011a0008b8549000a0550008b85580003003300e9
:1011b0000a00be0002047400838474008301d1001d
:1011c0000281d300830f7100f0ff3a008904d1003f
:1011d0000884d3006001490082017800c1adde00bf
:1011e000fb07b000e2fe07002dff37000960a000fa
:1011f0000800be002aff370012022000924d88002e
:10120000f0ff2f00f1ff270025ff37006022b80014
:10121000060220000000d0008180d2000482d200ab
:101220008582d2000000a0000202520083825a0090
:10123000030031000202420083824a000000a10044
:101240000603e900f3ff3a0000000600889fbe0095
:101250008a9fbe008c9fbe000206780001f0a700a6
:101260000cf0a0000004be00e7fe07000800be006e
:101270006420e1000700390002003a00f1ff270076
:10128000f0ff2f000160a00012022000924d8800a4
:101290005100370009f0a1000800be000200200044
:1012a00003f8230065fe0700f4ff3c000800be00c1
:1012b00002002000039823005efe07000800be0025
:1012c000300035000200200003f023005bfe070021
:1012d00005003c000800be000801be00f7fe070044
:1012e0000005be000e0037000c10a2000000200018
:1012f00001f823000801be0028fd070002002000bd
:1013000003f02300edfe07000005be008aff070082
:101310000200200003002c00e8fe07000004be00cd
:101320000a00be00b2d02800130b2c001cfd0700e1
:101330000a01be00e1fe0700020f2500330b240066
:1013400017fd0700809fbe000a00be005206220063
:1013500013f02b00d9fe0700b2662100f3f623003c
:101360000ffd07000a01be00d4fe07004f01be00ba
:10137000eefd07000801be00d0fe07000801be0018
:1013800007fd07000c00a70007003700b2fd200092
:1013900093fc23000c10a70001fd07000cf0a70030
:1013a00001f0a2000c0037000cf0a700020037008b
:1013b00001f0a20004003700b2fd200093042400d5
:1013c0000c10a60003003700b2fd200093fc2300a0
:1013d0000c10a700f2fc07004f06be004f05be0030
:1013e0004f04be0000000600889fbe008a9fbe001a
:1013f0000003be0084fe070085057800828152004c
:10140000020020006220e10004003a00f307b1006e
:10141000040035007718e100040035000600be0026
:10142000140037006000b8000f003700f50f2000ef
:10143000faff2f008502d1000a85d3008301e9005d
:10144000fcff3b008184620000046500890f74008a
:10145000f2ff32008582ea000a85ea008184620098
:101460000004650042fe070007f0a70001f0a0009d
:101470000081eb000200e0004f05be004f04be00fb
:1014800000000600889fbe008a9fbe00841f78006f
:1014900072fe07004f00780011003300f0ff2f00ac
:1014a000838f6c0006003b00040565000a00a7005e
:1014b0000800370009f0a6001000200008003700df
:1014c000820f5400838f5c0003003900100020005d
:1014d00001003e000000200009f0a7000000ea0023
:1014e0004f05be004f04be000000e00000000600f3
:1014f000881f7800030478000300e00007003d0027
:1015000060001000e080180060011900e0811900ff
:1015100002003b0001f02d0003003700040007002b
:1015200008f0a70001f0a0004f04780000000600ba
:10153000889fbe008a9fbe00008270000402710076
:1015400004827100260032000004be000200be00ca
:101550006011b8006b092000950220000182cf00c5
:101560000a0039000541b1000082cf0007003900b0
:101570000541b1000982cf00040039000541b100e6
:101580000882cf00010039000541b1000542520038
:10159000120032000a003b00828171006101640088
:1015a0008100d1000080d3008984d3000884d30057
:1015b0008b05e8000442e800f7ff3a000700370017
:1015c0000804440089844c000000480081804800e1
:1015d0008b05e9000442e900f9ff3a00e4fd070049
:1015e0004f05be004f04be000000060004002000ae
:1015f00000003700889fbe008a9fbe008c1f7800c5
:101600004f26dd0015fe07001cfe33006120e100bf
:10161000430032006250e10041003e003e003900cc
:101620006420e1003c003200058255000f003b00c1
:101630000402e80038003a00800f5300818f5b00fd
:10164000350034000800be0003f0a10001f0a60040
:1016500003f0a0000cf0a70051fc070010fe3700bb
:101660000603430087834b000c46460000055300e9
:1016700081855b00020033000a03be000c00a0005d
:101680000402e900f6ff3b008505780006024300ee
:1016900087824b0004003a006000b80009f0a70000
:1016a00001f0a000fefd37000002520081825a00c6
:1016b0000704e000040033000603430087834b0067
:1016c0008b05e900faff3700090578000604be0023
:1016d0000203be006011b800a5fd0700e00f520034
:1016e000e08f5a000700350002003c000c08a30000
:1016f000040032000601be0003f0a0000cf0a700b9
:1017000027fc07000a85680001f0a1000af0a70085
:1017100001f0a000e2fd37000800be00e0fd370048
:10172000100220000cf0a600904d8800e0fd37006c
:1017300020c32000b8013700881f7800e87121001d
:101740001804e00003003a00f9ff070020c0b300ce
:10175000004c78004f04780000000600889fbe000f
:101760000004780008007800490007008004780031
:1017700000042000180060000200320028009000e1
:10178000870007000000eb0020049800384090001c
:101790000004e000050035000000fb009efb070090
:1017a0000000e000010032008084eb00181090007f
:1017b0000000e00008003200cefb07000000e0005f
:1017c000010032008084eb001810900074000700c4
:1017d0000000eb00101498000008200018006000c2
:1017e0000f003200a15721000000eb00d10f1400c0
:1017f00005003a0000004000c15721000080400071
:101800000008eb00030037000000e800e80f50007c
:10181000f6ff3a0008007800610007000e0037006c
:10182000000c780000c0eb003044980060022000fb
:1018300008004000200498004004980050049800dc
:10184000400c980060049800500c980070049800b8
:1018500076004400000c9800090078004f04be0098
:1018600000000600889fbe00c8582100f004540004
:10187000480078000000e00001003200b7ff0700d8
:10188000890f5400faff3a004f04be000000060022
:10189000889fbe008a1f7800000478000800e000de
:1018a0000d003a00a8572100700544008004eb00a9
:1018b000580078000000e00004003200f4ff070048
:1018c0000000e00001003d008084eb008a0f54001e
:1018d000f7ff3a00250037000000220018006000e2
:1018e0008004eb0021003200a80490000f003700b4
:1018f00009015100384090000000fb008900780089
:101900004efb07000000e00007003c0028009000ac
:101910004004980060049800500c98001890a000b3
:101920008084eb001100370080844400480190005f
:10193000828f5400eeff3900280090004004980088
:101940009800780002c020000281600001003a0087
:101950003800900001e8a300020032006004980003
:1019600001003700500c98008004eb00090078005b
:101970004f0578004f04be0000000600889fbe009f
:101980000004be003001070080c1eb0000017800b8
:101990000800be00480107004f04be00000006001a
:1019a0000000e0002f003200c0017800e38f5100fa
:1019b0002c0036000308a3002a003a00e1b880009a
:1019c0000100e00002003200810f500004003100ed
:1019d00011009800e0b888001600370082007800f7
:1019e000110190000200e00002003200800f51005f
:1019f000faff39001102780084824000850f500000
:101a000018003900808f520003003a00830842001a
:101a100001007800070037000200e00003003200f8
:101a200083014000830f51000e003900120098001e
:101a300090009800900090000100e0000900320042
:101a400010014000828f500006003a00a271210070
:101a50000009eb001001780011084100910090008e
:101a60001100980000000600889fbe008a9fbe00fb
:101a70008c9fbe008e1f780000067800010478005d
:101a800002007800830478000881b900020778001a
:101a90000200e000420032000800e0004100320095
:101aa00082057800c900900069009000808f500086
:101ab0000400390009007800500107000000e00030
:101ac0002900350000402000190060000a003200a3
:101ad0000b017800a10020000c00780093000700a3
:101ae000800678000d00e000060032006105160057
:101af0000a854600040037000b0578008006eb00dd
:101b0000010037000b05780049009000e9009000c3
:101b1000808050008a8f500002003100010578005b
:101b20008006eb000a0178008c007800970007001f
:101b30008a855500490090000a004000c0049800c2
:101b40000d00e000040032000900780050ff07009b
:101b50000000e00004003a000b00e0000200320048
:101b60000a064600cfff3700008020001900600001
:101b7000020032000900780045ff070000c0200085
:101b8000190060000200320049009000e004980053
:101b90008b055700110009008885d8000100370027
:101ba0000000eb004f0778004f06be004f05be0057
:101bb0004f04be0000000600889fbe0000047800ad
:101bc000d1b880000100e00002003200010078007e
:101bd0000d003700e1b88000c0712100040037001b
:101be000910f5400250036000180e800910090001c
:101bf0000100e000faff3a0010003700920f540095
:101c00001e0036000280e800100178000200e000ab
:101c1000faff3a0011017800e1b88000c07121009c
:101c200004003700910f5400140036000180e800d2
:101c300091009000828f5000faff3a0009b98000ad
:101c4000888f540001003100880478000900780072
:101c5000310107000000e00004003a00888f5400c2
:101c6000050032008904d100f5ff3700091878001b
:101c70004bff0700d2ff37000000eb004f04be000f
:101c800000000600881f7800630440000800a100df
:101c90008000eb00800f540021003600e30f540059
:101ca00001003e004800200008007800c2ff070045
:101cb0008000eb000000e000190032009000780086
:101cc0009101780064815100880f510003003100b8
:101cd00011019000020878000700370008814000d9
:101ce000020878009101900013019800100178001b
:101cf0001109140088087800100178000000eb003a
:101d00000200e00004003200920190000300e000b5
:101d1000010032000280e800d0b888008180e8002d
:101d2000010078004f04780000000600030037002f
:101d3000b0cf1000050032000201e90080017800f8
:101d40000200e000faff3a000000050003007800fe
:101d5000000006000900370030427800b1417800e9
:101d6000834f5200040032001000200006003100b2
:101d70000080eb00000006000201e9000200e00024
:101d8000f5ff3a000000eb0000000600800178003b
:101d900002003700b15978000201e9000200e000ba
:101da000fcff3a00000006008001780002003700c6
:101db000815978000201e9000200e000fcff3a00ce
:101dc0000000060080007800010178003104e00086
:101dd000fdff3a000000510000000600800178007d
:101de00002003700845978000201e9000200e00097
:101df00006003200314278000404e000f9ff3a00a6
:101e0000020037008059eb000201e9000200e00007
:101e1000fcff3a0000000600010020000100e00085
:101e200008003200010080000100e00005003200df
:101e30008100e900010088008180400002008000ec
:101e400000b1780000000600881f7800a15721002b
:101e50000004eb00510078000000e0000b003a00a5
:101e60008002200087ff07000000e0001000320021
:101e700088004400c257210000b17800010820000a
:101e80000108780028409800090037001000e000a1
:101e900003003a00f1f72f00010878000400370032
:101ea0000804e800e80f5400eaff3a000000eb00e5
:101eb0004f04780000000600881f780002047800b4
:101ec0000800e0004a003200050820009882620005
:101ed0002841900013000900001ceb008802b100ab
:101ee00000c2eb00344498002244980062022000b3
:101ef000080141002204980042049800520498000e
:101f0000420c980062049800520c980072049800e9
:101f100076014400020c9800114278001200200063
:101f200026c7b300864f520009003200a2012000ec
:101f300065434300864f5200050032000001eb006c
:101f400076435300864f520001003a0062012000a0
:101f500002817200020c7800630161000c003a00fb
:101f60001d003700180178000258a3000f003a0046
:101f70000250a000020c780005003700180178001c
:101f800063026100e30f520008003200630c71002d
:101f90005141780024c6b300844f5100f1ff320054
:101fa000b4c2b300844f5100f4ff32000000e000df
:101fb00007003200010178009800780060000700f7
:101fc000304498000004e00008003d0002003700a3
:101fd0000304e00004003d0008007800dffd070076
:101fe0000004eb000200370033449800d2fd0700e4
:101ff000080078004f04780000000600889fbe00ab
:102000008a1f780000047800c800900068019000e2
:102010000000eb00828f50003c003900180078006f
:102020002200290002016000e20f51000700320087
:10203000012024000000e00001003d0001202000fc
:10204000008c70000080eb0030003700020026009a
:1020500002006000820f500009003a003800900032
:10206000808f5000060039000800780008fe070045
:10207000800078000080eb000100e00023003a00bf
:102080001805780000c020000000650018003a0024
:10209000a80490006002200008004000808f5400d7
:1020a00013003a0000202000f6fe070020049800ec
:1020b0000000e00005003a00290498004904980057
:1020c0008904e80039049800080037000a60a0007d
:1020d0000a0c780040049800012020008080400015
:1020e00031049800400c9800500c980092fd0700b5
:1020f0002800900050049800380090006004980078
:1021000000002600180c70000000eb004f0578005e
:102110004f04be0000000600800078000000eb00c5
:102120000100e00005003400010078007af90700a2
:10213000e10f400001003a000000eb000000060043
:1021400001017800e30061008100d00023712100cb
:10215000e38078000228a300010032000130a000d3
:102160000238a300010032000190a0000248a30041
:10217000010032000180a0000258a30003003200d9
:1021800002002800810071000100370001e0a0007a
:10219000021820000ff93700881f78000204780029
:1021a00008017800f9fe0700080040004f0478009d
:1021b000000006000000fa00881f78000004780084
:1021c000ea8157003fb9970088007800c00c2100d1
:1021d000070007000000e000020035008040eb002f
:1021e000017478004f0478000080fa0000000600b7
:1021f0006200fa00889fbe008a1f78000005780000
:1022000081047800020478008300780080f92f00b0
:102210000f004000a70307009a979f00a9979f000f
:102220000000eb00b09f9f001885fb008a04fb00b4
:102230000a05ea004f55de0050022000808f54004e
:102240000d003200e10f55000b003a000a01780042
:10225000880078002f9097009f919700030001005d
:10226000a0979f000000e0008e0032003f9897008a
:102270000000e800b09f9f000a04440050022000c4
:10228000808f5400040032000900e000e6ff3a00ad
:102290003f989700840037000000eb00909f9f005c
:1022a000809f9f00f0979f00e0979f00d0979f002e
:1022b000c0979f0007003700c17021000100500047
:1022c000000040000170210061007800df98970055
:1022d00001007000d09f9f008804780009047800f6
:1022e000384578008a00fb00c07021007a010700a1
:1022f0000000e000f0ff3a00a1c2b300814f55009a
:102300000e003a00cf8897000180e900c08f9f003f
:1023100010007800c09f9f000000e00005003d0015
:102320000000ea00c09f9f005f9897000020a00077
:10233000d09f9f000904e8000f003700c09f9f0056
:102340000000eb0005003700f2ff2700820f50006d
:10235000020032006a01b9000280400009047800de
:1023600088047800b900fb000103b100e98f500038
:10237000f5ff3600c09f9f00e0c2b300984f1000e9
:10238000020032000080eb0019003700a0c2b30049
:10239000d84f100007003a00cf8897000180e9006d
:1023a000c08f9f0010007800a09f9f000804e800e5
:1023b000100037000000eb00a09f9f00880078000d
:1023c00005003700f3ff2700830f500002003200a2
:1023d0006a02b90004004100010478008800780016
:1023e0003101fb000203b100e90f5100f5ff360097
:1023f000a09f9f00984478008900fb00806f210017
:10240000350107000000e000020032000804e80087
:10241000010037008044eb00c97f9f0080c6b300f5
:1024200080cf540004003a0098cf14000a003a000c
:102430006640500006003700c0c6b30080cf54008d
:1024400005003a0098cf140003003a0065404000b0
:10245000c07f9f000804e8001801fb00e3fb2f0089
:102460008f81410081f92f008f804000a0f92f005b
:102470000f004000100007000000e00009003a00d3
:10248000e1fb2f008f804000a0f92f000f004000db
:102490004c0207000000e000020035000804e800dc
:1024a00061ff37000080eb004f0578004f04be004d
:1024b0000080fa0000000600881f7800e4c6b30020
:1024c000844f5100b600320010003c006b425200b5
:1024d000844f51001800320005003c0054c2b30084
:1024e000844f5100ee00320084c5b3000f00370066
:1024f00044c6b300844f51001400320065424200cc
:10250000844f5100e9003a001000370004c7b300bf
:10251000844f5100d500320053003500654242001f
:10252000844f51005000320063424200844f5100fa
:10253000de003a004c0037001181e9008208780083
:10254000f000900012417800d60037002062900021
:10255000c5c6b300854f520007003a0091027800cb
:1025600064825200840878001402be004fabde0083
:10257000860378001100370015c7b300854f52005d
:1025800003003200a5c6b300854f520006003a0092
:102590009102780068825200840878005403be00db
:1025a0004402be00050037001182e900840878006b
:1025b00014027800cfa2de00612bb9000498be009f
:1025c0000690be00a060900088c6b30088cf50007f
:1025d0000d00320028c6b30088cf500004003a0036
:1025e0000402fb00cfa2de00612bb9000800370017
:1025f00048c7b30088cf500003003200664444004f
:1026000088cf500004003a00cfa2de00612bb90051
:102610000498be000690be003002be002003be003b
:10262000f0009000e00f5200e08f5a00e00f5b00d6
:10263000e08f5b0002003d00d4c2b3000800370009
:10264000001290000418a30002003200b4c2b300cc
:10265000030037000408a3004c00320004c2b3009a
:1026600084f178004700370020629000c5c6b300af
:10267000854f520006003a009102780064825200b1
:10268000840878001402be006033b80011003700df
:1026900015c7b300854f520003003200a5c6b30032
:1026a000854f520006003a0091027800688252007d
:1026b000840878005403be004402be0005003700c1
:1026c0001182e90084087800140278008002eb008f
:1026d0006033b8000498be000690be00a060900071
:1026e00088c6b30088cf50000d00320028c6b30062
:1026f00088cf500004003a000482fb008002eb0007
:102700006033b8000800370048c7b30088cf5000d6
:10271000030032006644440088cf500004003a00b1
:102720008002eb006033b8000498be000690be0043
:10273000801090000138a300140032003002be0067
:102740002003be00e00f5200e08f5a00e00f5b0054
:10275000e08f5b000d00320081c7b300814f510054
:102760000300320081c5b300814f510007003a00d9
:10277000f000900004c3b30084f178008100e80009
:1027800082f178008100e80071009800f00090006c
:102790008181410063009800824078003e0037004c
:1027a000a0619000c4c6b3001181e90084cf51003c
:1027b000220032000a003c006442520084cf5100e3
:1027c0002500320004c2e80084cf5100130032001b
:1027d0006842520084cf51001e003a000a003700c0
:1027e00044c7b30084cf51001b0032006642420050
:1027f00084cf5100180032006942520084cf51004a
:1028000014003a0005003700820878009200780032
:1028100040589000804878002c00370082087800eb
:1028200092007800600a9000cfa2de00612bb90010
:102830008498be008690be0024003700820878008d
:102840009200780060099000cf91de008288be007f
:102850001e0037001181e90082087800920078009c
:102860006008900080087800180037001181e900a6
:102870008208780012027800cfa2de00612bb90036
:102880000498be000690be00f000900081814100d7
:102890006300980081c7b3001b0007000b003700de
:1028a000f000900082f1780006003700f000900000
:1028b000818141000204e00001003a0052c2b300ed
:1028c000824978008100e800710098000000eb0068
:1028d0004f04780000000600020037000304e00007
:1028e000060032000001780002007800b041780054
:1028f00081cf5100f9ff3a00010037000001eb00e1
:102900000200780000000600fc874700889fbe0098
:102910008a9fbe008c9fbe008e1f78000006780044
:1029200080c5b30080cf50000a00320077404000dd
:1029300080cf50000a0032006940400080cf500034
:102940000b003200b06c210080bf9f00ae00200061
:102950000a003700a26b210082bf9f0006003700eb
:10296000b36c210083bf9f008e002000030037005e
:10297000b46c210084bf9f000e0120003c02be0009
:102980002c03be000605be000404be0040c6b30012
:1029900080cf5000030032006540400080cf5000df
:1029a0000b003a00e00f5200e08f5a00e00f5b008e
:1029b000e08f5b0006003d006000b8006011b800c9
:1029c0000404500085845800060559008785590085
:1029d000e80f57000400320040002000f00f5700bd
:1029e00038003a000100370030002000e00f5400aa
:1029f000e08f5c00e00f5d00e08f5d0004003a00b6
:102a0000dc0890008d0120000100e000060032008b
:102a10008e00e900888060008fba9700e5c07800da
:102a2000f1ef9f007d012000800078008100e90027
:102a3000050033008b05d1000a85d3008984d300bb
:102a40000884d300f9ff3700089ebe000a96be0036
:102a5000120037008d06e9008e00e90084806000d6
:102a60000fb99700e2c1780082fd2f000f014100ed
:102a700003f17e00800078008100e900050033004a
:102a80008783d1000683d3008582d3000482d300dc
:102a9000f9ff3700049ebe000696be003c02be0051
:102aa0002c03be00e00f5200e08f5a00e00f5b00e5
:102ab000e08f5b008b0034000d00e000e5ff3c0080
:102ac000880037002c60900081c6b300814f500011
:102ad0000b00320006003c000004e0000800320059
:102ae000e6c05000814f50004e003a00040037000d
:102af000c1c6b300814f50004a003a0021003700a0
:102b00000800e00004003a005c0890008d012000fd
:102b10000000e00006003200110009000e84d80019
:102b20000fb99700e2c07800f1ef9f007d0120000f
:102b3000110009000e84d8000a00370011000900b6
:102b40000e04d8008d06e9000e81b900020454007d
:102b50008fb8970061417c0081fd2f008f8040007d
:102b600082f07e00000478000800e00002003200dd
:102b70000d00e000f1ff3c00cfc4de00614db90064
:102b800025003700e00f5400e08f5c0004003a009d
:102b90005c0890008d0120000000e000070032007a
:102ba0006171b9000800be005b0107008fb9970092
:102bb000e3417800f3ef9f007d0120006171b900cf
:102bc0000800be0091f907000b0037006171b900e1
:102bd0000800be00410107008d06e90000f1b900c0
:102be000020454000fba9700e4427c0084fd2f00d9
:102bf0000f02420005f27e000004be00e00f50000c
:102c0000e08f5800020032000d00e000efff3c00b2
:102c10004fcdde008a057800089ebe000a96be00f1
:102c200030003700e00f5400e08f5c00e00f5d00e3
:102c3000e08f5d0004003a005c0890008d012000e8
:102c40000000e000090032006172b900612bb90098
:102c50000800be000a01be00d20107000fba9700ab
:102c600064427800f4ef9f007d0120006172b9009a
:102c7000612bb9000800be000a01be00c2010700b6
:102c80000d0037006172b900612bb9000800be0069
:102c90000a01be00c70107008d06e90000f2b90075
:102ca000040454008fba970065427c0085fd2f0014
:102cb0008f82420084f27e00009ebe000296be001b
:102cc0003c04be002c05be00e00f5400e08f5c0009
:102cd000e00f5d00e08f5d00020034000d00e000b9
:102ce000e8ff3c00e80f570010003a000c1090007d
:102cf0000038a3000d003200f78f560006003e009a
:102d000085fd2f008f824200e5c07e0000c3b30026
:102d100080cf5000050032008d06e90002c3b300e9
:102d200081fd2f008f80400082f07e0078811600a8
:102d3000120e98006c00900083fd2f008f814100df
:102d40008d80410011fc07001c089000dc089000f9
:102d5000810f500006003d0000805000000e9800da
:102d60000c1090000040a100001698000f003700e2
:102d70000100e0000d003d008c109000f480600028
:102d8000f08f500009003a007c099000fc00900090
:102d9000810051000c09900082805000008050009a
:102da0004240a90001003400000e98004f0778004f
:102db0004f06be004f05be004f04be00cf01b1005c
:102dc000000006000400fa00889fbe008a9fbe0033
:102dd0008c1f78000004780001067800f80d900040
:102de0007800900080855500080890008085550087
:102df00018089000808555002808900080855500af
:102e0000380890008085550048089000808555005e
:102e10000002220090bf9f0000032300a0bf9f007c
:102e2000081090000028a30015003a000b00e000f5
:102e3000130034000b0578008a047800e20f550077
:102e40000100360029002000c80190000901780027
:102e5000ee805700580090000300010050049800d5
:102e60000000e0008c00320068089000090040007b
:102e7000600c9800090555004240a900eeff3c0097
:102e8000780190000200e0000c003400c8019000be
:102e90008c00780058009000030001005004980056
:102ea0008080eb000000e0007c003200e808900029
:102eb0007800900000804000600c9800880c900022
:102ec0000900e0001100340009057800e28f540089
:102ed000010036002a002000c80190000a01780095
:102ee000ec80570058009000030001005004980047
:102ef0000000e00068003200680890000a0040000e
:102f0000600c98008a845400edff37001809900087
:102f10000200e0000c003400c8019000e8009000be
:102f20005800900003000100500498008080eb00de
:102f30000000e00059003200e808900018089000f6
:102f400000804000600c9800a80c90000900e00090
:102f50001100340009057800e28f540001003600aa
:102f60002a002000c80190000a017800ec80570078
:102f70005800900003000100500498000000e00099
:102f800045003200680890000a004000600c98007c
:102f90008a845400edff3700380990000200e000f9
:102fa0000e003400e8009000180890008080400077
:102fb000c8019000580090000300010050049800e0
:102fc0008080eb000000e00034003200e808900050
:102fd0003808900000804000600c9800c80c9000f9
:102fe0000900e0001100340009057800e28f540068
:102ff000010036002a002000c80190000a01780074
:10300000ec80570058009000030001005004980025
:103010000000e00020003200680890000a00400034
:10302000600c98008a845400edff3700081090006f
:103030008000eb000028a300180032000b00e00025
:10304000160034008b04780009057800e28f5400e4
:10305000010036002a002000c80190000a01780013
:10306000ee805700580090000300010050049800c3
:103070000000e00008003200680890000a004000ec
:10308000600c98008a8454004240a900eeff3c0086
:103090008000eb00010037008080eb000100780029
:1030a0004f0678004f05be004f04be000080fa00b6
:1030b00000000600010878000000060000c0da00e9
:1030c0000000060000c0da000000060000c0da00c0
:1030d0000000060000c0da0000000600839f6800c0
:1030e0000100e00002003d0060001000e0801800d8
:1030f0000300e00002003d0060011100e0811900c2
:1031000042f807004f00e00002003b0060001000a2
:10311000e0801800000006003cf807000400be0034
:1031200000000600889fbe008a9fbe003004420057
:10313000b0844a0030054b0090854b006000b10020
:103140000898be000a90be000440e10005c8e100f6
:1031500006d0e10007d8e10002003100680040001d
:103160001008e8004f05be004f04be000000060036
:10317000889fbe008a9fbe003004be002005be00ae
:103180000418540005985c0006185d0007985d005f
:10319000110020000440e10005c8e10006d0e10074
:1031a00007d8e100010039008000eb001088100012
:1031b0004f05be004f04be00000006001200fa00da
:1031c000889fbe008a9fbe008c9fbe00e0b79f0014
:1031d000f1b79f0082bf9f0093bf9f000605be000e
:1031e0000404be000000eb00d0b79f00c0b79f00f2
:1031f000b0b79f00a0b79f0090b79f000006eb00fc
:103200005fb19700cfb09700820141003fb09700b7
:103210000200e00004003d00370007007e805700f8
:10322000c0ff070003003700330007007e8057000f
:10323000cfff0700dfb697000d00e0000c0035005f
:103240006fb29700ffb297000fbb97009fbb97002c
:1032500010002000010020006011b8000002720080
:103260008182720002037300838373001b000700d6
:103270000c06e80001042000810f5600e0ff3a0030
:103280000d00e00004003d000802be000a03be007d
:103290007e805700a3ff07005fa897000000e000b2
:1032a00005003a001fb29700afb297003fb39700f6
:1032b000cfb39700090007006fb09700ffb09700e9
:1032c0000fb997009fb997004f06be004f05be008b
:1032d0004f04be000080fa00000006000100070055
:1032e00000000600a4b79f00b5b79f00c6b79f00b7
:1032f000d7b79f00000006004f09de0082817100f1
:10330000b3b79f004f01de008180400082807000d3
:10331000a1b79f008fb097004f09de00000040006a
:103320000200700090b79f007fa897004f01de0059
:10333000818040008280700081b79f000d000700ef
:103340004f3ade000000400004007000f0af9f0024
:10335000080007000402420085824a0006034b0071
:1033600087834b00dfff07000802be000a03be0090
:10337000000006002fb29700bfb297004fb397002e
:10338000dfb3970000000600881f780018002000b7
:10339000881f780089ff07008f87e9004f047800b5
:1033a00000000600801feb0084ff07008f87e90004
:1033b00000000600889fbe008a9fbe00e00f5000fc
:1033c000e08f5800e00f5900e08f59000c003d00dd
:1033d0006044b8006055b8000000540081805c0073
:1033e00002015d0083815d001800200015000700c8
:1033f00008003d00180007000004eb00050037003e
:103400000004eb000f00070002003d00120007005f
:1034100018002000dcff07000800e0000600320072
:103420006022b8006033b8000000520081805a006a
:1034300002015b0083815b004f05be004f04be00ac
:1034400000000600e00f5200e08f5a00e00f5b0022
:10345000e08f5b00000006006044b8006055b800d3
:103460000402540085825c0006035d0087835d00d2
:1034700000000600889fbe008a9fbe008c1f780057
:10348000e00f5000e08f5800e00f5900e08f590026
:103490000d003d006044b8006055b80000005400c5
:1034a00081805c0002015d0083815d001c002000c2
:1034b0000820e10009a8e1000ab0e1000bb8e10032
:1034c0000d003d00080037000006eb00e00f520041
:1034d000e08f5a00e00f5b00e08f5b0006003d00cc
:1034e0006044b8006055b8000402540085825c0056
:1034f00006035d0087835d00aaff07000c00e00063
:10350000060032006022b8006033b80000005200ac
:1035100081805a0002015b0083815b004f067800c6
:0c3520004f05be004f04be000000060076
:020000040000fa
:10352c0000950000000000000000000001f9000000
:10353c0000000000000000000887000004000000ec
:10354c000000000009af00000000000001000000b6
:10355c000a1b000000000000010000000cc300006a
:10356c0001000000000000000daf00000200000090
:10357c000000000010ff0000000000000000000030
:10358c0011ff0000000000000100000012ff00000d
:10359c00000000000100000018ff00000000000007
:1035ac000100000019ff00000000000001000000f5
:1035bc0020ff0000000000000000000021ff0000c0
:1035cc00000000000000000026df000001000000e9
:1035dc000000000037730000000000000000000035
:1035ec003a25000004000000000000003b2500000c
:1035fc00000000000000000029ff00000400000093
:10360c000000000017ff0000000000000000000098
:10361c002123000024250000262700002829000073
:10362c002d4000005e5f0000607b00007d7e00008e
:10363c00205c00002f3a00002a3f0000223c0000d2
:10364c003e7c00002e2e0000000000009491000033
:10365c0070910000ec980000a29100002c930000e7
:10366c00c4970000269800005445000053540000f5
:10367c00256400002e420000494e000000000000ae
:08368c0077620000000000005d
:020000040000fa
:103694000200fa00000f78009e007800614d880057
:1036a4000080fa00000006000200fa000000eb00af
:1036b400000f780065003700a09a20001e0040002b
:1036c40011c0b30001487800411021001e007800a9
:1036d4004900dd00008140009e00780020032000a6
:1036e4000088b90080007800e0612100008040007b
:1036f400f10f20008100610090417800e0c1610079
:1037040081c0710001487800c810de0010419000ab
:1037140060416100814071001140980041302100f6
:103724001e0078004900dd00008140009e00780002
:10373400200320000088b900800078000062210086
:1037440000804000f10f200081006100904178006a
:10375400e0c1610081c0710001487800c810de003a
:103764001041900060416100814071001140980057
:103774001e0078006c00b90080007800006321000e
:10378400008140009e007800200320000088b900da
:10379400800078002062210000804000f10f2000aa
:1037a4008100610090417800e0c1610081c0710036
:1037b40001487800c810de001041900060416100ab
:1037c40081407100114098001e0078006c00b9001f
:1037d4008000780080632100808040001100780020
:1037e4000000a100800878001e0078006c00b90079
:1037f4008000780080632100808040001100780000
:103804000010a100800878001e0078006c00b90048
:103814008000780000632100008140000080eb00fc
:103824008080eb000089be001e0078006c00b900a7
:103834008000780040632100008140000080eb009c
:103844008080eb000089be001e0fe8001e00780097
:103854000000e00098ff34000000eb0000b2880094
:103864006000b800e0b18800f1b1880010002000c9
:103874000080fa00000006000000fa008aff07003a
:103884000080fa00000006000400fa00000f78002f
:10389400110798001e007800900090001e00900010
:1038a400010001000080fa00000006000400fa0094
:1038b400204798000040eb00004f780018003700c4
:1038c4009e80fb00a09a20000080400010407800f9
:1038d4000004e00011003a009e80fb002003200059
:1038e4000088b900000078000003b000f15f2100f7
:1038f400e14078002e40900080cf500007003a004d
:103904009e80fb00200320000088b900800078001e
:10391400e05f210000804000050037001e4fe800f2
:103924001e4078000004e000e5ff32000000eb00d8
:103934000080fa00000006000400fa002047980006
:103944002e409000d9ff0700000f78001e00780079
:103954000000e00002003a000000eb000300370022
:103964001e007800606890000080fb000080fa0070
:10397400000006000e00fa00004f9800510798005e
:10398400620798000000eb00000f78000e489000da
:10399400c6ff0700100798001e0090000000e0001a
:1039a4003d003a000040eb004047980037003700e4
:1039b4004e4090008080fb00a09a200000804000d0
:1039c400104078000004e0002d0032004e409000ca
:1039d4008080fb00a09a2000008040008040eb0023
:1039e400014878004e4090008080fb00f25f210087
:1039f400200320000088b900000078000000410086
:103a04000003b0008e489000014878004e409000ba
:103a14008080fb00200320000088b900800078002b
:103a240040622100008040005e019000f10f200000
:103a340081006100104178006041610081407100a3
:103a440001487800de009000c808de0010419000b4
:103a54006041610081407100114098004e40900027
:103a64008080fb00200320000088b90080007800db
:103a7400e05f210000804000100798000600370036
:103a84004e4090000040e800404798004e409000af
:103a94000004e000c6ff32001e0090000000e000b9
:103aa40002003a0030022000a30037004e4090008c
:103ab4000080fb006c00b900800078008063210066
:103ac40080804000110078000000a1008008780088
:103ad4004e4090000080fb006c00b900800078002c
:103ae4008063210080804000110078000010a10054
:103af400800878004e4090000080fb006c00b90004
:103b04008000780000632100008140000080eb0009
:103b14008080eb000089be004e4090000080fb00d6
:103b24006c00b900800078004063210000814000ef
:103b34000080eb008080eb000089be001e00900036
:103b44006e019000f10f2000810061000069900077
:103b5400604161008140710001689800ee009000ae
:103b6400c808de0010699000604161008140710066
:103b7400116898005e009000100078000000e000da
:103b8400040032005e009000900078006e00900007
:103b9400010001005e009000a00090006e00900003
:103ba40001000100300798003e00900010007800ea
:103bb4000000e0000300320060002000000f7800e5
:103bc400260037003e009000100090006100600065
:103bd4000000e000210032003e0090002000900030
:103be4006101b8001e009000f10f20008100610007
:103bf400005a9000604262008140720001589800af
:103c0400c810de00105a90006042620081407200c9
:103c140011589800f10f200081806100205a900013
:103c2400604262008140720021589800c818de008a
:103c34003059900060416100814071003158980012
:103c44003e009000a000900000202000808f5000d3
:103c54000200360040022000000f78001e007800a9
:103c64000000e00009003a001e0090003400070044
:103c7400000f78001e0078000000e00003003a0006
:103c84001e00900068010700000f78001e007800f5
:103c94000000e00017003a0000b280000000e000dd
:103ca40024003a009e00900001b288001e0190009a
:103cb400c24990008381fb00524a90000482fb00b9
:103cc4004822dd008481710003007800e2499000fd
:103cd4008381fb00724990000281fb004811dd00e2
:103ce4000281710082007800e0b18800f1b188009f
:103cf400100037004e4090008080fb00f25f2100ee
:103d0400200320000088b900000078000000410072
:103d14000003b0008040eb00014878004e40900062
:103d24008080fb00a09a20000080400011c0b300f6
:103d3400014878001e0078000080fa0000000600a8
:103d44001000fa007007980010c0b300004f78000c
:103d54000000eb00100798007e009000e0609000e7
:103d64008180fb00706090000080fb004800dd0053
:103d740000807000400290007e00900080609000ff
:103d84008180fb00106090000080fb004800dd0093
:103d940000807000800078007e0090000069900030
:103da4000281fb00106890000080fb004800dd00e9
:103db400000071006011b800040001000004a200ba
:103dc4000004e00003003200800020001007980087
:103dd400120137007e009000c06090008180fb00db
:103de400506090000080fb004800dd0000807000ff
:103df400000178006000b8000089be007e009000d9
:103e0400806090008180fb00106090000080fb00c7
:103e14004800dd0000807000400798004e009000cc
:103e2400e0f8930050c5b30080cf50007f003a0003
:103e34004e009000f0f89300a0cab30080cf500069
:103e44007a003a004e009000e070900060c4b30025
:103e540080cf500027003a004e009000f070900090
:103e640010c4b30080cf500022003a004e009000ee
:103e74008078900040c5b30080cf50001d003a0008
:103e84004e0090009078900010c3b30080cf500093
:103e940018003a004e009000e060900090c2b30019
:103ea40080cf500013003a007e00900090407800cc
:103eb400e0c060000148780090409000e0c06000dd
:103ec40011409800a0409000e0c06000214098009c
:103ed400b0409000e0c06000314098007e00900047
:103ee40021c0b300616898000040eb00004f7800e7
:103ef4004e0037007e009000806090008180fb00bf
:103f0400106090000080fb004800dd00008070001d
:103f14002005b0009040780060c4b30080cf50000a
:103f240042003a007e009000806090008180fb0097
:103f3400106090000080fb004800dd0000807000ed
:103f44003005b0009040780010c4b30080cf50001a
:103f540036003a007e009000806090008180fb0073
:103f6400106090000080fb004800dd0000807000bd
:103f74004005b0009040780040c5b30080cf5000a9
:103f84002a003a007e009000806090008180fb004f
:103f9400106090000080fb004800dd00008070008d
:103fa4005005b0009040780030c3b30080cf50007b
:103fb4001e003a007e009000806090008180fb002b
:103fc400106090000080fb004800dd00008070005d
:103fd4002004b0009040780090c2b30080cf50001d
:103fe40012003a007e00900090407800e0c060002b
:103ff4000148780090409000e0c0600011409800b3
:10400400a0409000e0c0600021409800b0409000c3
:10401400e0c06000314098007e00900031c0b300e1
:10402400616898000040eb00004f78001e40780063
:104034000004e000790032007e009000806090006f
:104044008180fb00106090000080fb004800dd00d0
:1040540000807000500798005e009000e0f8930024
:1040640050c5b30080cf500005003a005e009000b8
:10407400f0f89300a0cab30080cf500003003200d0
:104084004000200010079800640037005e00900094
:10409400e01bb000300798007e0090008040eb00e9
:1040a400616898000040eb004047980050003700da
:1040b4003e009000804890008180fb00104a9000f0
:1040c4000482fb004822dd00848070000101780036
:1040d400a04890008180fb00304890000080fb00e5
:1040e4004800dd0000807000800178007e009000b0
:1040f400f10f2000810061001042780060426200ec
:104104008140720001487800c810de00104290001f
:10411400604262008140720011409800f10f20005b
:104124008180610020429000604262008140720000
:1041340021409800c818de003041900060416100c1
:1041440081407100314098003e009000c0409000d2
:10415400414f98004e4890000080fb00ee0f500045
:1041640019003e00110020000008dd0001052400b4
:10417400810060000100e0000b003a000180210092
:10418400810060000100e0000b003a006200600062
:104194000000e0000c0032007e00900011c0b3006b
:1041a40061689800080037007e00900021c0b300c9
:1041b40061689800040037007e00900031c0b300ad
:1041c40061689800000000007e0090006068900024
:1041d4000004e0000a003a003e0090007000400035
:1041e400300798004e4090000040e8004047980097
:1041f4004e409000e34f5000adff36000100370001
:10420400000000007e009000606890000004e00060
:1042140002003a0050002000100798001e00900091
:104224000080fa00000006001800fa00889fbe0013
:10423400300f98000000eb00000f78000040eb0006
:10424400604798000040eb00704798003e089000db
:10425400e06090008180fb00706090000080fb00b3
:104264004800dd0000807000400290003e0890008d
:10427400806090008180fb00106090000080fb0053
:104284004800dd0000807000800078003e08900047
:104294009082fb00104390000683fb004833dd004e
:1042a4008682720005017800a04290008582fb009e
:1042b400304090000080fb004800dd000080720068
:1042c400800178003e089000806a90008582fb009f
:1042d400106890000080fb004800dd000080720040
:1042e400040001000004a2000004e0000300320006
:1042f40080002000000f7800210337003e08900062
:10430400c06090008180fb00506090000080fb0042
:104314004800dd0000807000800178003e099000b4
:104324001282fb00924290008582fb00c82add00c5
:104334000502720004007800224290000482fb000f
:10434400324190000281fb004811dd00020172003d
:10435400820078008089be003e0890008060900052
:104364008180fb00106090000080fb004800dd00ad
:1043740000807000400798004e009000e0f8930021
:1043840050c5b30080cf500005003a004e009000a5
:10439400f0f89300a0cab30080cf500003003200ad
:1043a40030002000000f7800490237003e089000da
:1043b400806090008180fb00106090000080fb0012
:1043c4004800dd0000807000e1002000b71f0700f6
:1043d400500798003e089000806090008180fb00a8
:1043e400106090000080fb004800dd000080700039
:1043f4006d004000904078003e089000516898009d
:104404003e0990009281fb00124290000482fb005e
:104414004822dd008481710003007800a2419000ed
:104424008381fb00324190000281fb004811dd00d2
:1044340002817100820078005e0190008001eb002f
:1044440000014100818149003e089000f10f2000e5
:10445400810061004042900060426200814072002d
:1044640041409800c810de00504290006042620053
:104474008140720051409800f10f2000818061005a
:104484006042900060426200814072006140980086
:10449400c818de00704190006041610081407100e5
:1044a400714098003e089000806090008180fb007d
:1044b400106090000080fb004800dd000080700068
:1044c40070004000904078003e08900041689800d9
:1044d4003e089000806090008180fb001060900096
:1044e4000080fb004800dd000080700061012000b6
:1044f4006e1f07006101b8003e089000f10f200014
:1045040081006100405a9000604262008140720064
:1045140041589800c810de00505a90006042620072
:104524008140720051589800f10f20008180610091
:10453400605a9000604262008140720061589800a5
:10454400c818de007059900060416100814071001c
:10455400715898003e099000c25990008381fb0075
:10456400525a90000482fb004822dd0084817100cd
:1045740003007800e25990008381fb007259900097
:104584000281fb004811dd00028171008200780085
:10459400e00f5000e08f580021003a003e089000e0
:1045a400806090008180fb00106090000080fb0020
:1045b4004800dd000080700041022000541f070005
:1045c4000001be003e089000f10f20008100610050
:1045d400405a900060426200814072004158980045
:1045e400c810de00505a90006042620081407200a0
:1045f40051589800f10f200081806100605a9000aa
:10460400604262008140720061589800c818de0060
:1046140070599000604161008140710071589800a8
:104624003e089000c04090008180fb005041900003
:104634000281fb004811dd008280700001027800d5
:10464400e04090008180fb00704090000080fb00ff
:104654004800dd0000807000800278003e08900071
:10466400406890000081fb008001eb003e0b90004d
:10467400c65b90008783fb00565c90000884fb00b7
:104684004844dd008883730007007800e65b9000ef
:104694008783fb00765b90000683fb004833dd00d4
:1046a4000683730086007800009bb9000603780037
:1046b400028cb90088037800070343000010b80097
:1046c400010343008600780004014000858148000e
:1046d4003e089000f10f200081006100004a900024
:1046e400604262008140720001489800c810de00f8
:1046f400104a9000604262008140720011489800a4
:10470400f10f200081806100204a90006042620025
:104714008140720021489800c818de00304990009a
:104724006041610081407100314898003e0890006a
:10473400806090008180fb00106090000080fb008e
:104744004800dd000080700011012000d71e070022
:10475400800078003e089000f20f20000281600083
:10476400a0699000e0c1610002c171002268980054
:10477400c808de003069900060416100814071002a
:10478400316898003e089000806090008180fb00b2
:10479400106090000080fb004800dd000080700085
:1047a40031012000c11e07008000eb0010079800b3
:1047b400210798001e009000ae009000e00f50000a
:1047c400e08f58000b003a003e0890008060900093
:1047d4008180fb00106090000080fb004800dd0039
:1047e4000080700001022000c91e07001007980015
:1047f400210798003e089000806090008180fb00b3
:10480400106090000080fb004800dd000080700014
:10481400b1002000a51e0700600798006e009000fc
:104824000000e000050032006e00900061006000ae
:10483400004078000004e000030032004002200041
:10484400000f7800220137003e089000a068900015
:104854008180fb00306890000080fb004800dd0090
:1048640000807000c500dd006e00900000804000f4
:104874008000e9006e00900000017800110009003a
:104884008280d8008000eb0070079800010f980028
:104894005e0090006103b8003e08900040689000fc
:1048a4000081fb008001eb003e0a9000c45a900096
:1048b4008582fb00545c90000884fb004844dd00c2
:1048c4008882720005007800e45a90008582fb001b
:1048d400745a90000482fb004822dd0004827200b6
:1048e40084007800009ab90004027800028cb900b0
:1048f40088027800050242000010b800010242005c
:104904008400780006014000878148007e00900002
:104914008e08900002004000838048001e01900031
:10492400ae0190000000510081805900100f9800e2
:10493400210f98003e089000506890000080fb0012
:104944008000eb000001be001e089000ae0890003d
:104954002df207000001be003e089000f10f200078
:104964008100610040529000604262008140720008
:1049740041509800c810de0050529000604262001e
:104984008140720051509800f10f20008180610035
:104994006052900060426200814072006150980051
:1049a400c818de00705190006041610081407100c0
:1049b400715098003e099000c25190008381fb0021
:1049c400525290000482fb004822dd008481710071
:1049d40003007800e25190008381fb007251900043
:1049e4000281fb004811dd00028171008200780021
:1049f40042ff200003002000820f5000838f5800e4
:104a040004003e003e08900011c0b30061689800a5
:104a14001b0037003e099000c25190008381fb00c7
:104a2400525290000482fb004822dd008481710010
:104a340003007800e25190008381fb0072519000e2
:104a44000281fb004811dd000281710082007800c0
:104a540042ff2f0003002000820f5000838f580074
:104a640004003e003e08900021c0b3006168980035
:104a7400030037003e08900031c0b300616898001d
:104a84003e08900060689000e34f50004c003a00ec
:104a94003e089000806090008180fb0010609000d0
:104aa4000080fb004800dd0000807000c10220008f
:104ab400171e07000001be003e089000f10f200001
:104ac40081006100404a90006042620081407200af
:104ad40041489800c810de00504a900060426200cd
:104ae4008140720051489800f10f200081806100dc
:104af400604a900060426200814072006148980000
:104b0400c818de0070499000604161008140710066
:104b1400714898003e099000824990008381fb000f
:104b2400124a90000482fb004822dd008481710057
:104b340003007800a24990008381fb003249900071
:104b44000281fb004811dd000281710082007800bf
:104b54007e0190008e09900000014100818149008e
:104b64003e089000f10f2000810061000052900087
:104b7400604262008140720001509800c810de005b
:104b840010529000604262008140720011509800ff
:104b9400f10f200081806100205290006042620089
:104ba4008140720021509800c818de0030519000f6
:104bb4006041610081407100315098003e0037002f
:104bc4003e089000c0489000e0c060004148980052
:104bd400d0489000e0c0600051489800e048900040
:104be400e0c0600061489800f0489000e0c06000b8
:104bf400714898003e099000824990008381fb002f
:104c0400124a90000482fb004822dd008481710076
:104c140003007800a24990008381fb003249900090
:104c24000281fb004811dd000281710082007800de
:104c34003e099000a26990008381fb0032699000d4
:104c44000281fb004811dd00028171004411de0085
:104c54008001eb0000014100818149003e08900081
:104c6400f10f200081006100005290006042620058
:104c74008140720001509800c810de00105290006c
:104c8400604262008140720011509800f10f2000d0
:104c94008180610020529000604262008140720075
:104ca40021509800c818de00305190006041610026
:104cb4008140710031509800ee00900000202000e7
:104cc400808f50000200360040022000000f780060
:104cd4003e08900060689000e34f50000d003200e1
:104ce4001e0078000000e0009e0032004e0090009c
:104cf400a0c0900090c2b30080cf500005003200e5
:104d04004e009000a0c0900080c2b30080cf50003d
:104d140096003a004e009000b05090008180fb0055
:104d2400405090000080fb004800dd0000807000cf
:104d34000000e0000a003a004e009000a0c090007d
:104d440090c2b30080cf5000070032004e009000a4
:104d5400a0c0900080c2b30080cf50000200320097
:104d640030002000000f78001e0078000000e000f2
:104d7400400032006e4090000004a2000004e000f5
:104d84003c00320010c0b300604798003e08900019
:104d9400e06090008180fb00706090000080fb0068
:104da4004800dd0000807000c00290003e089000c2
:104db400806090008180fb00106090000080fb0008
:104dc4004800dd0000807000000278003e09900079
:104dd4009281fb00124390000683fb004833dd0000
:104de4008681710003007800a24190008381fb005a
:104df400324190000281fb004811dd000281710004
:104e0400820078004e019000a27190008381fb0023
:104e1400327190000281fb004811dd0002817100b3
:104e24008001eb0000014100818149003e089000af
:104e3400806890008180fb00106890000080fb0077
:104e44004800dd0000807000840078000500010047
:104e54000004a2000004e0000300320080002000ef
:104e6400000f7800460037000000eb00000f7800c8
:104e74003b0037001e0078000000e0003d003200d7
:104e84007e4090000004a2000004e0003b003200d9
:104e940010c0b300704798003e089000e060900096
:104ea4008180fb00706090000080fb004800dd0002
:104eb40000807000c00290003e0890008060900066
:104ec4008180fb00106090000080fb004800dd0042
:104ed40000807000000278003e0990009281fb007f
:104ee400124390000683fb004833dd008681710085
:104ef40003007800a24190008381fb0032419000be
:104f04000281fb004811dd000281710082007800fb
:104f140066014000e08148003e08900080689000ef
:104f24008180fb00106890000080fb004800dd00d9
:104f34000080700084007800050001000004a200d5
:104f44000004e0000300320080002000000f78001d
:104f54000b0037000000eb00000f78000000000099
:104f640005fd3700000000000500370000000000c8
:104f740003003700000000000100370000000000bb
:104f84001e0078004f04be000080fa0000000600f6
:104f94000600fa00404798004e40900043fa07008c
:104fa400100798001e0090000000e00002003a0084
:104fb4000080eb0049003700110020001e00900023
:104fc400540a07008000eb001e009000510a0700fd
:104fd4001e009000e06090008180fb0070609000f3
:104fe4000080fb004800dd0000807000b0009000ed
:104ff4001e009000006990000281fb001068900080
:105004000080fb004800dd00000071000100010089
:105014000040eb00004f7800230037009e80fb0027
:10502400200320000088b900000078000003b000cd
:10503400f15f2100e14078004e40900080cf5000a5
:1050440018003a009e80fb00a09a200000804000d7
:1050540011c0b300014878009e80fb00f25f21007c
:10506400200320000088b9000000780000004100ff
:10507400e002b0008040eb00014878009e80fb0015
:10508400f25f2100200320000088b90000007800ae
:10509400000041000003b0008040eb0001487800ac
:1050a400040037001e4fe8001e4078000004e000b2
:1050b400daff320001b280001e009000808f5000a1
:1050c40005003a006000b800e0b18800f1b1880042
:1050d4000000eb0000b288000000eb000080fa0042
:1050e400000006000c00fa0040079800214f9800c9
:1050f40010002000100798000040eb004047980083
:105104000040eb00504798004e009000904078001b
:10511400e0c2b30080cf500097003a004e009000e8
:105124000000e80010407800604798006e4090004e
:105134000004e00004003200ee409000f0c2b3002e
:1051440080cf500002003a0030c0b300a200370004
:10515400ee409000e0c2b30080cf500088003a00d7
:105164004e0090000080e8001040780060479800ee
:105174006e4090000004e00004003200ee40900015
:10518400f0c2b30080cf50007f003a0030c0b300bb
:10519400910037001e009000e10f500054003a00c7
:1051a4005e4090000040e80050479800ee409000b8
:1051b40000c4b30080cf500004003600ee409000dd
:1051c400a0c5b30080cf50003b003600ee409000f5
:1051d400f0c2b30080cf500004003600ee409000cf
:1051e40090c3b30080cf5000330036006e4090006f
:1051f4000004e00030003500ee409000e0c2b3004f
:1052040080cf50000c003a004e4090000004a200f1
:105214000004e0000500320010c0b30040479800cd
:105224000040eb0050479800230037002000200086
:1052340010079800200037000040eb00004f780072
:10524400070037001e80fb00e1b02900e140780030
:105254006e40900080cf5000050032001e4fe800e1
:105264001e407800f04f5000f6ff36000100370072
:10527400000000001e407800f14f50000e003a007c
:105284002e4890000004a2000004e00008003a0048
:10529400ee409000f0c3b30080cf5000060032000f
:1052a400ee409000a0c2b30080cf50000200320054
:1052b40020002000100798004e4090000004e000f9
:1052c400060032005e409000e34f500008003600b4
:1052d4002000200010079800050037005e40900071
:1052e400e84f50000200360020002000100798000c
:1052f4001e009000e20f500024003a000040eb0032
:10530400004f7800180037001e80fb00f1b129001f
:10531400e14078006e40900080cf500011003a00c8
:105324002e4890000004a2000004e00008003a00a7
:10533400ee409000f0c3b30080cf5000090032006b
:10534400ee409000a0c2b30080cf500005003200b0
:105354000000eb00100798001e0090000040780049
:105364001d0037001e4fe8001e407800e84f500033
:10537400e5ff360005003700000000000300370099
:105384000000000001003700000000004e00900003
:1053940010407800604798006e4090000080fb0049
:1053a4000000ea004f00de0000407800ce009000cc
:1053b4008100e800410798000004e0000400320086
:1053c400ee409000f0c2b30080cf500071ff3a006d
:1053d4001e009000004078000080fa0000000600e3
:1053e4000600fa0010079800210798000040eb001f
:1053f400004f7800060037001e80fb00ae009000ce
:10540400008040009e409000716098001e4fe800ac
:105414001e00900090407800114798009e40900034
:10542400e0c2b30000c068000080fb000000ea0096
:105434004f00de00004078009e0090008100e800ec
:10544400110798000004e0000e0032001e40900096
:105454000004e0000b0032009e409000f0c2b30054
:1054640080cf5000e4ff3a00060037001e80fb00a6
:10547400ae0090000080400001c2b300716098004b
:105484001e4fe8001e407800e74f5000f7ff36003b
:105494009e409000e0c2b30080cf50001b003a0051
:1054a400060037001e80fb00ae0090000080400024
:1054b4009e409000716098001e4fe8001e0090000e
:1054c40090407800114798001e4090000080fb0037
:1054d4000000ea004f00de00004078009e009000cb
:1054e4008100e800110798000004e000edff3a0095
:1054f400060037001e80fb00ae00900000804000d4
:1055040001c2b300716098001e4fe8001e4078008d
:10551400ea4f5000f7ff36000080fa000000060052
:105524001a00fa00200f9800310f9800420f9800db
:105534000000eb00100f9800680047000041eb00ea
:10554400be08900026010700300f98003e08900026
:105554000000e00002003a000080eb00ce003700bb
:105564004e009000de00900070079800010f980034
:105574006e009000e06090008180fb0070609000fd
:105584000080fb004800dd0000807000e000900017
:105594006e009000006990000281fb00106890008a
:1055a4000080fb004800dd000000710001000100e4
:1055b4000004e000090032004e0890006e00600014
:1055c4000000e000050032006e009000a1c1b300ad
:1055d400017098000080eb00af0037002e089000a7
:1055e4000000e00005003a006e00900021c2b30004
:1055f400017098000080eb00a70037008040eb00aa
:105604003e089000b7fe0700204798002e40900007
:10561400e14f50001c003a004e009000de00900064
:1056240070079800010f98000000eb00100f98001d
:10563400ae0890003e08900069ff07002e08900015
:105644007002b00080007800f20147006e0147004c
:1056540068004700270020000003eb008002eb00f5
:10566400030278008201780001017800ae089000fe
:105674007c030700000f78001e0078000000e000a3
:1056840006003200210037006e00900031c1b300e3
:10569400017098000080eb007f0037004e089000f6
:1056a400680060000000e00006003a00680047005f
:1056b400ae0890007a0007000004a2000004e00095
:1056c4000d0032002e0890007008900030079800fa
:1056d4006600470012c0b300800078002e089000d6
:1056e400770c0700000f78004e0890000020a000ff
:1056f400400f98001a003700ce089000b0ff2f002a
:1057040000806000400f9800150037001e007800ec
:10571400ef0f500012003a004e0890006400600041
:105724000000e0000e0032000000eb00000f7800e3
:10573400ee0090002e089000410898004e00900062
:10574400de0090002e0990000089be004e009000fb
:10575400de0090002e09900020019800310198008d
:105764001e0078000000e00010003a004e0890008f
:10577400640060000000e0000c0032000000eb0058
:10578400300798006600470013c0b3000041eb00e7
:10579400800078002e089000f6030700000f7800c0
:1057a4004e0890000040a000400f98001e007800b2
:1057b4000000e0002e003a004e08900061006000f6
:1057c400004078000004e00005003200ae089000bc
:1057d400111890000010a0009018980004003700e1
:1057e400ae089000111890000010a10090189800c5
:1057f4004e089000620060000000e00005003200e6
:10580400ae089000111890000000a00090189800b5
:1058140004003700ae089000111890000000a100a9
:10582400901898004e089000700060000000e0009e
:105834000f003200210020006011b8002e089000f3
:10584400d0100700200798002e0090000000e00010
:1058540003003200c0012000000f7800040037006c
:10586400ce089000f0fe2f0000806000400f9800ea
:105874001e0078000000e000060032006e00900078
:105884009e00780081407800017098000080eb0051
:10589400010037000000eb000080fa000000060061
:1058a4000e00fa0050079800610798006e009000ff
:1058b4001000be0020079800310798000000eb009c
:1058c400400798002e009000be009000e00f5000aa
:1058d400e08f580012003a005e0090002001900012
:1058e400c24990008381fb00524a90000482fb006d
:1058f4004822dd008481710003007800e2499000b1
:105904008381fb00724990000281fb004811dd0095
:105914000281710082007800200798003107980006
:105924006e009000f009900068014700e400470011
:105934000e80e800030278008201780001017800fb
:10594400800078005e009000b3060700000f780026
:105954001e0078000000e00002003a000040eb0066
:105964000b0037001e007800200890000000e000c3
:1059740006003a001e007800500890000000e00085
:1059840002003a000040eb000100370010c0b300f1
:105994000080fa00000006000600fa0020079800c4
:1059a4002e009000200890008000eb00008fbe00c5
:1059b4001e00be00c000dd0000002000008fbe00fd
:1059c4002e009000500890008000eb001e1f700015
:1059d4001e9770001e00be000080fa000000060042
:1059e4000a00fa002007980031079800024f980037
:1059f4003e009000f2f00700000f78001e007800cf
:105a04000000e00002003a000000eb007e003700d6
:105a140062002000c16321002e009000daf007002c
:105a24001e007800e10f500002003a003e00900092
:105a3400750037003e0090000000e80090407800b8
:105a4400a0c3b30080cf500066003a003e0090002f
:105a54001040780095f70700ae009000a000980071
:105a64002e009000200090000000e00002003a00a8
:105a74000000eb00640037002e009000200190002d
:105a8400c24990008381fb00524a90000482fb00cb
:105a94004822dd008481710003007800e24990000f
:105aa4008381fb00724990000281fb004811dd00f4
:105ab40002817100820078002e0190000089be00ee
